{
    "contractName": "MyContract",
    "abi": [
        {
            "constant": true,
            "inputs": [],
            "name": "myString",
            "outputs": [
                {
                    "internalType": "string",
                    "name": "",
                    "type": "string"
                }
            ],
            "payable": false,
            "stateMutability": "view",
            "type": "function"
        }
    ],
    "bytecode": "60c0604052600f60808190527f68656c6c6f20636f6e747261637431000000000000000000000000000000000060a090815261003e9160009190610051565b5034801561004b57600080fd5b506100ec565b828054600181600116156101000203166002900490600052602060002090601f016020900481019282601f1061009257805160ff19168380011785556100bf565b828001600101855582156100bf579182015b828111156100bf5782518255916020019190600101906100a4565b506100cb9291506100cf565b5090565b6100e991905b808211156100cb57600081556001016100d5565b90565b610170806100fb6000396000f3fe608060405234801561001057600080fd5b506004361061002b5760003560e01c8063492bfa1814610030575b600080fd5b6100386100ad565b6040805160208082528351818301528351919283929083019185019080838360005b8381101561007257818101518382015260200161005a565b50505050905090810190601f16801561009f5780820380516001836020036101000a031916815260200191505b509250505060405180910390f35b6000805460408051602060026001851615610100026000190190941693909304601f810184900484028201840190925281815292918301828280156101335780601f1061010857610100808354040283529160200191610133565b820191906000526020600020905b81548152906001019060200180831161011657829003601f168201915b50505050508156fea265627a7a72315820a380812b2ca2d0c4cdfb194ddf2464d758b588d741a8abac25360fa394adaf0564736f6c634300050b0032",
    "sourcePath": "/home/ys/ethreum_bootcamp/MyContract1.sol",
    "compiler": {
        "name": "solc",
        "version": "0.5.11+commit.c082d0b4"
    },
    "functionHashes": {
        "myString()": "492bfa18"
    },
    "gasEstimates": {
        "creation": {
            "codeDepositCost": "73600",
            "executionCost": "infinite",
            "totalCost": "infinite"
        },
        "external": {
            "myString()": "infinite"
        }
    }
}