{
    "contractName": "WorkingWithVariables",
    "abi": [
        {
            "constant": true,
            "inputs": [],
            "name": "myUnit",
            "outputs": [
                {
                    "internalType": "uint256",
                    "name": "",
                    "type": "uint256"
                }
            ],
            "payable": false,
            "stateMutability": "view",
            "type": "function"
        },
        {
            "constant": false,
            "inputs": [
                {
                    "internalType": "uint256",
                    "name": "_myUnit",
                    "type": "uint256"
                }
            ],
            "name": "setMyUnit",
            "outputs": [],
            "payable": false,
            "stateMutability": "nonpayable",
            "type": "function"
        }
    ],
    "bytecode": "608060405234801561001057600080fd5b5060ab8061001f6000396000f3fe6080604052348015600f57600080fd5b506004361060325760003560e01c80636a345bb4146037578063b36cbc5f14604f575b600080fd5b603d606b565b60408051918252519081900360200190f35b606960048036036020811015606357600080fd5b50356071565b005b60005481565b60005556fea265627a7a72315820b36e5badf202b154cb816c1a6d1732ac47634e531dfe8853f3a4f5ac654bbf6c64736f6c634300050d0032",
    "sourcePath": "/home/ys/ethreum_bootcamp/Variables.sol",
    "compiler": {
        "name": "solc",
        "version": "0.5.13+commit.5b0b510c"
    },
    "functionHashes": {
        "myUnit()": "6a345bb4",
        "setMyUnit(uint256)": "b36cbc5f"
    },
    "gasEstimates": {
        "creation": {
            "codeDepositCost": "34200",
            "executionCost": "87",
            "totalCost": "34287"
        },
        "external": {
            "myUnit()": "376",
            "setMyUnit(uint256)": "20189"
        }
    }
}