{
  "contractName": "ItemManager",
  "abi": [
    {
      "anonymous": false,
      "inputs": [
        {
          "indexed": false,
          "internalType": "uint256",
          "name": "_itemIndex",
          "type": "uint256"
        },
        {
          "indexed": false,
          "internalType": "uint256",
          "name": "_step",
          "type": "uint256"
        },
        {
          "indexed": false,
          "internalType": "address",
          "name": "_itemAddress",
          "type": "address"
        }
      ],
      "name": "SupplyChainStep",
      "type": "event"
    },
    {
      "inputs": [],
      "name": "isOwner",
      "outputs": [
        {
          "internalType": "bool",
          "name": "",
          "type": "bool"
        }
      ],
      "stateMutability": "view",
      "type": "function",
      "constant": true
    },
    {
      "inputs": [
        {
          "internalType": "uint256",
          "name": "",
          "type": "uint256"
        }
      ],
      "name": "items",
      "outputs": [
        {
          "internalType": "contract Item",
          "name": "_item",
          "type": "address"
        },
        {
          "internalType": "string",
          "name": "_identifier",
          "type": "string"
        },
        {
          "internalType": "uint256",
          "name": "_priceInWei",
          "type": "uint256"
        },
        {
          "internalType": "enum ItemManager.SupplyChainSteps",
          "name": "_state",
          "type": "uint8"
        }
      ],
      "stateMutability": "view",
      "type": "function",
      "constant": true
    },
    {
      "inputs": [
        {
          "internalType": "string",
          "name": "_identifier",
          "type": "string"
        },
        {
          "internalType": "uint256",
          "name": "_priceInWei",
          "type": "uint256"
        }
      ],
      "name": "createItem",
      "outputs": [],
      "stateMutability": "nonpayable",
      "type": "function"
    },
    {
      "inputs": [
        {
          "internalType": "uint256",
          "name": "_itemIndex",
          "type": "uint256"
        }
      ],
      "name": "triggerPayment",
      "outputs": [],
      "stateMutability": "payable",
      "type": "function",
      "payable": true
    },
    {
      "inputs": [
        {
          "internalType": "uint256",
          "name": "_itemIndex",
          "type": "uint256"
        }
      ],
      "name": "triggerDelivery",
      "outputs": [],
      "stateMutability": "nonpayable",
      "type": "function"
    },
    {
      "inputs": [],
      "name": "getContractAddress",
      "outputs": [
        {
          "internalType": "address",
          "name": "",
          "type": "address"
        }
      ],
      "stateMutability": "view",
      "type": "function",
      "constant": true
    }
  ],
  "bytecode": "0x6080604052336000806101000a81548173ffffffffffffffffffffffffffffffffffffffff021916908373ffffffffffffffffffffffffffffffffffffffff160217905550611112806100536000396000f3fe6080604052600436106100555760003560e01c806332a2c5d01461005a578063800fb83f146100b15780638c551742146100df5780638f32d59b146101b1578063bfb231d2146101e0578063cd31831e146102e3575b600080fd5b34801561006657600080fd5b5061006f61031e565b604051808273ffffffffffffffffffffffffffffffffffffffff1673ffffffffffffffffffffffffffffffffffffffff16815260200191505060405180910390f35b6100dd600480360360208110156100c757600080fd5b8101908080359060200190929190505050610326565b005b3480156100eb57600080fd5b506101af6004803603604081101561010257600080fd5b810190808035906020019064010000000081111561011f57600080fd5b82018360208201111561013157600080fd5b8035906020019184600183028401116401000000008311171561015357600080fd5b91908080601f016020809104026020016040519081016040528093929190818152602001838380828437600081840152601f19601f820116905080830192505050505050509192919290803590602001909291905050506105d1565b005b3480156101bd57600080fd5b506101c6610858565b604051808215151515815260200191505060405180910390f35b3480156101ec57600080fd5b506102196004803603602081101561020357600080fd5b81019080803590602001909291905050506108af565b604051808573ffffffffffffffffffffffffffffffffffffffff1673ffffffffffffffffffffffffffffffffffffffff1681526020018060200184815260200183600281111561026557fe5b60ff168152602001828103825285818151815260200191508051906020019080838360005b838110156102a557808201518184015260208101905061028a565b50505050905090810190601f1680156102d25780820380516001836020036101000a031916815260200191505b509550505050505060405180910390f35b3480156102ef57600080fd5b5061031c6004803603602081101561030657600080fd5b81019080803590602001909291905050506109a4565b005b600030905090565b61032e610858565b6103a0576040517f08c379a00000000000000000000000000000000000000000000000000000000081526004018080602001828103825260208152602001807f4f776e61626c653a2063616c6c6572206973206e6f7420746865206f776e657281525060200191505060405180910390fd5b346001600083815260200190815260200160002060020154111561042c576040517f08c379a000000000000000000000000000000000000000000000000000000000815260040180806020018281038252600e8152602001807f4e6f742066756c6c79207061696400000000000000000000000000000000000081525060200191505060405180910390fd5b6000600281111561043957fe5b6001600083815260200190815260200160002060030160009054906101000a900460ff16600281111561046857fe5b146104be576040517f08c379a00000000000000000000000000000000000000000000000000000000081526004018080602001828103825260238152602001806110ba6023913960400191505060405180910390fd5b600180600083815260200190815260200160002060030160006101000a81548160ff021916908360028111156104f057fe5b02179055507fa4035636e99f06b7651a604c1019fa4e8779fe68ef27eeb74dff2de348f6199b816001600084815260200190815260200160002060030160009054906101000a900460ff16600281111561054657fe5b60016000600254815260200190815260200160002060000160009054906101000a900473ffffffffffffffffffffffffffffffffffffffff16604051808481526020018381526020018273ffffffffffffffffffffffffffffffffffffffff1673ffffffffffffffffffffffffffffffffffffffff168152602001935050505060405180910390a150565b6105d9610858565b61064b576040517f08c379a00000000000000000000000000000000000000000000000000000000081526004018080602001828103825260208152602001807f4f776e61626c653a2063616c6c6572206973206e6f7420746865206f776e657281525060200191505060405180910390fd5b6000308260025460405161065e90610b4a565b808473ffffffffffffffffffffffffffffffffffffffff1673ffffffffffffffffffffffffffffffffffffffff1681526020018381526020018281526020019350505050604051809103906000f0801580156106be573d6000803e3d6000fd5b5090508060016000600254815260200190815260200160002060000160006101000a81548173ffffffffffffffffffffffffffffffffffffffff021916908373ffffffffffffffffffffffffffffffffffffffff1602179055508160016000600254815260200190815260200160002060020181905550600060016000600254815260200190815260200160002060030160006101000a81548160ff0219169083600281111561076a57fe5b021790555082600160006002548152602001908152602001600020600101908051906020019061079b929190610b57565b507fa4035636e99f06b7651a604c1019fa4e8779fe68ef27eeb74dff2de348f6199b60025460016000600254815260200190815260200160002060030160009054906101000a900460ff1660028111156107f157fe5b83604051808481526020018381526020018273ffffffffffffffffffffffffffffffffffffffff1673ffffffffffffffffffffffffffffffffffffffff168152602001935050505060405180910390a1600260008154809291906001019190505550505050565b60008060009054906101000a900473ffffffffffffffffffffffffffffffffffffffff1673ffffffffffffffffffffffffffffffffffffffff163373ffffffffffffffffffffffffffffffffffffffff1614905090565b60016020528060005260406000206000915090508060000160009054906101000a900473ffffffffffffffffffffffffffffffffffffffff1690806001018054600181600116156101000203166002900480601f0160208091040260200160405190810160405280929190818152602001828054600181600116156101000203166002900480156109815780601f1061095657610100808354040283529160200191610981565b820191906000526020600020905b81548152906001019060200180831161096457829003601f168201915b5050505050908060020154908060030160009054906101000a900460ff16905084565b600160028111156109b157fe5b6001600083815260200190815260200160002060030160009054906101000a900460ff1660028111156109e057fe5b14610a36576040517f08c379a00000000000000000000000000000000000000000000000000000000081526004018080602001828103825260238152602001806110ba6023913960400191505060405180910390fd5b60026001600083815260200190815260200160002060030160006101000a81548160ff02191690836002811115610a6957fe5b02179055507fa4035636e99f06b7651a604c1019fa4e8779fe68ef27eeb74dff2de348f6199b816001600084815260200190815260200160002060030160009054906101000a900460ff166002811115610abf57fe5b60016000600254815260200190815260200160002060000160009054906101000a900473ffffffffffffffffffffffffffffffffffffffff16604051808481526020018381526020018273ffffffffffffffffffffffffffffffffffffffff1673ffffffffffffffffffffffffffffffffffffffff168152602001935050505060405180910390a150565b6104bd80610bfd83390190565b828054600181600116156101000203166002900490600052602060002090601f016020900481019282601f10610b9857805160ff1916838001178555610bc6565b82800160010185558215610bc6579182015b82811115610bc5578251825591602001919060010190610baa565b5b509050610bd39190610bd7565b5090565b610bf991905b80821115610bf5576000816000905550600101610bdd565b5090565b9056fe608060405234801561001057600080fd5b506040516104bd3803806104bd8339818101604052606081101561003357600080fd5b81019080805190602001909291908051906020019092919080519060200190929190505050816000819055508060028190555082600360006101000a81548173ffffffffffffffffffffffffffffffffffffffff021916908373ffffffffffffffffffffffffffffffffffffffff160217905550505050610404806100b96000396000f3fe6080604052600436106100385760003560e01c80632986c0e51461030e5780633c8da5881461033957806389794d0014610364576102ff565b366102ff576000600154146100b5576040517f08c379a00000000000000000000000000000000000000000000000000000000081526004018080602001828103825260148152602001807f4974656d206973207061696420616c726561647900000000000000000000000081525060200191505060405180910390fd5b346000541461012c576040517f08c379a000000000000000000000000000000000000000000000000000000000815260040180806020018281038252601a8152602001807f4f6e6c792066756c6c207061796d656e747320616c6c6f77656400000000000081525060200191505060405180910390fd5b346001600082825401925050819055506000600360009054906101000a900473ffffffffffffffffffffffffffffffffffffffff1673ffffffffffffffffffffffffffffffffffffffff1634600254604051602401808281526020019150506040516020818303038152906040527f800fb83f000000000000000000000000000000000000000000000000000000007bffffffffffffffffffffffffffffffffffffffffffffffffffffffff19166020820180517bffffffffffffffffffffffffffffffffffffffffffffffffffffffff83818316178352505050506040518082805190602001908083835b6020831061023b5780518252602082019150602081019050602083039250610218565b6001836020036101000a03801982511681845116808217855250505050505090500191505060006040518083038185875af1925050503d806000811461029d576040519150601f19603f3d011682016040523d82523d6000602084013e6102a2565b606091505b50509050806102fc576040517f08c379a000000000000000000000000000000000000000000000000000000000815260040180806020018281038252602d8152602001806103a2602d913960400191505060405180910390fd5b50005b34801561030b57600080fd5b50005b34801561031a57600080fd5b5061032361038f565b6040518082815260200191505060405180910390f35b34801561034557600080fd5b5061034e610395565b6040518082815260200191505060405180910390f35b34801561037057600080fd5b5061037961039b565b6040518082815260200191505060405180910390f35b60025481565b60005481565b6001548156fe546865207472616e73616374696f6e207761736e2774207375636365737366756c2c2063616e63656c6c696e67a2646970667358221220f6f36a2ad4845a91777f32504c6deb9457c4cc9c80f2e1172a9cc3376f45fb5064736f6c634300060100334974656d206973206675727468657220696e2074686520737570706c7920636861696ea2646970667358221220dbe07f7f6587ba1d0356dbeb6c5d96f68a9c8be7bf503fdab8199a295cf3bdcb64736f6c63430006010033",
  "source": "pragma solidity ^0.6.0;\n//instead of Ctrl+P / select 0.6.0 -> truffle-confg.js / \n// compilers : { solc : { version: 0.6.0 } }\n\nimport \"./Ownable.sol\";\nimport \"./Item.sol\";\ncontract ItemManager is Ownable {\n    \n    enum SupplyChainSteps{Created, Paid, Delivered}\n    \n    struct S_Item {\n        Item _item;\n        string _identifier;\n        uint _priceInWei;\n        ItemManager.SupplyChainSteps _state;\n    }\n    \n    mapping(uint => S_Item) public items;\n    \n    uint itemIndex;\n    \n    event SupplyChainStep(uint _itemIndex, uint _step, address _itemAddress);\n    \n    function createItem(string memory _identifier, uint _priceInWei) public onlyOwner {\n        //this: instance of ItemManager, ... <- constructor(Item..., uint, uint)\n        Item item = new Item(this, _priceInWei, itemIndex);\n        items[itemIndex]._item = item;\n        items[itemIndex]._priceInWei = _priceInWei;\n        items[itemIndex]._state = SupplyChainSteps.Created;\n        items[itemIndex]._identifier = _identifier;\n        // emit SupplyChainStep(itemIndex, uint(items[itemIndex]._state), address(items[itemIndex]._item));\n        emit SupplyChainStep(itemIndex, uint(items[itemIndex]._state), address(item));\n        itemIndex++;\n    }\n    \n    //NEED to input VALUE : 1000 wei to solve error: Not fully paid Error in left DEPLOY & RUN Panel.\n    //NEED to be create _state, which is 0 to triggerpayment for itemIndex 0.\n    function triggerPayment(uint _itemIndex) public payable onlyOwner {\n        require(items[_itemIndex]._priceInWei <= msg.value, \"Not fully paid\");\n        require(items[_itemIndex]._state == SupplyChainSteps.Created, \"Item is further in the supply chain\");\n        items[_itemIndex]._state = SupplyChainSteps.Paid;\n        emit SupplyChainStep(_itemIndex, uint(items[_itemIndex]._state), address(items[itemIndex]._item));\n    }\n    \n    function triggerDelivery(uint _itemIndex) public {\n        require(items[_itemIndex]._state == SupplyChainSteps.Paid, \"Item is further in the supply chain\");\n        items[_itemIndex]._state = SupplyChainSteps.Delivered;\n        emit SupplyChainStep(_itemIndex, uint(items[_itemIndex]._state), address(items[itemIndex]._item));\n    }\n    \n    function getContractAddress() public view returns(address) {\n        return address(this);\n    }\n}\n",
  "sourcePath": "/home/ys/ethreum_bootcamp/s06-eventtrigger/contracts/ItemManager.sol",
  "compiler": {
    "name": "solc",
    "version": "0.6.1+commit.e6f7d5a4.Emscripten.clang"
  },
  "schemaVersion": "3.2.3",
  "updatedAt": "2020-11-11T21:38:10.326Z",
  "networkType": "ethereum",
  "devdoc": {
    "methods": {}
  },
  "userdoc": {
    "methods": {}
  }
}