{
  "contractName": "Ownable",
  "abi": [
    {
      "inputs": [],
      "stateMutability": "nonpayable",
      "type": "constructor"
    },
    {
      "inputs": [],
      "name": "isOwner",
      "outputs": [
        {
          "internalType": "bool",
          "name": "",
          "type": "bool"
        }
      ],
      "stateMutability": "view",
      "type": "function"
    }
  ],
  "bytecode": "0x6080604052348015600f57600080fd5b50336000806101000a81548173ffffffffffffffffffffffffffffffffffffffff021916908373ffffffffffffffffffffffffffffffffffffffff16021790555060da8061005e6000396000f3fe6080604052348015600f57600080fd5b506004361060285760003560e01c80638f32d59b14602d575b600080fd5b6033604d565b604051808215151515815260200191505060405180910390f35b60008060009054906101000a900473ffffffffffffffffffffffffffffffffffffffff1673ffffffffffffffffffffffffffffffffffffffff163373ffffffffffffffffffffffffffffffffffffffff161490509056fea2646970667358221220ea810a83a135c099527b32fdaf15066f6ebc92a50d64a5d2002cac22821d59f964736f6c63430006010033",
  "source": "pragma solidity ^0.6.0;\n// pragma solidity >=0.4.21 <0.7.0;\n\ncontract Ownable {\n    address payable _owner;\n   //Constructor functions can be either public or internal. \n   //If there is no constructor, the contract will assume the default constructor: contructor() public {}. \n    constructor() public {\n        _owner = msg.sender;\n    }\n    \n    // modifier onlyOwner() {\n    //     require( msg.sender == _owner, \"Ownable: caller is not the owner\");\n    //     _;\n    // }\n    \n      modifier onlyOwner() {\n        require( isOwner(), \"Ownable: caller is not the owner\");\n        _;\n    }\n    \n    function isOwner() public view returns(bool) {\n        return (msg.sender == _owner);\n    }\n}\n// MetaMask - RPC Error: Error: [ethjs-query] while formatting outputs from RPC ",
  "sourcePath": "/home/ys/ethreum_bootcamp/s06-eventtrigger/contracts/Ownable.sol",
  "compiler": {
    "name": "solc",
    "version": "0.6.1+commit.e6f7d5a4.Emscripten.clang"
  },
  "schemaVersion": "3.2.3",
  "updatedAt": "2020-11-11T21:30:37.083Z",
  "devdoc": {
    "methods": {}
  },
  "userdoc": {
    "methods": {}
  }
}